{
  "_format": "hh-sol-artifact-1",
  "contractName": "MyToken",
  "sourceName": "contracts/token.sol",
  "abi": [
    {
      "inputs": [],
      "stateMutability": "nonpayable",
      "type": "constructor"
    },
    {
      "anonymous": false,
      "inputs": [
        {
          "indexed": true,
          "internalType": "address",
          "name": "owner",
          "type": "address"
        },
        {
          "indexed": true,
          "internalType": "address",
          "name": "approved",
          "type": "address"
        },
        {
          "indexed": true,
          "internalType": "uint256",
          "name": "tokenId",
          "type": "uint256"
        }
      ],
      "name": "Approval",
      "type": "event"
    },
    {
      "anonymous": false,
      "inputs": [
        {
          "indexed": true,
          "internalType": "address",
          "name": "owner",
          "type": "address"
        },
        {
          "indexed": true,
          "internalType": "address",
          "name": "operator",
          "type": "address"
        },
        {
          "indexed": false,
          "internalType": "bool",
          "name": "approved",
          "type": "bool"
        }
      ],
      "name": "ApprovalForAll",
      "type": "event"
    },
    {
      "anonymous": false,
      "inputs": [
        {
          "indexed": true,
          "internalType": "address",
          "name": "to",
          "type": "address"
        },
        {
          "indexed": true,
          "internalType": "uint256",
          "name": "tokenId",
          "type": "uint256"
        }
      ],
      "name": "Attest",
      "type": "event"
    },
    {
      "anonymous": false,
      "inputs": [
        {
          "indexed": true,
          "internalType": "address",
          "name": "previousOwner",
          "type": "address"
        },
        {
          "indexed": true,
          "internalType": "address",
          "name": "newOwner",
          "type": "address"
        }
      ],
      "name": "OwnershipTransferred",
      "type": "event"
    },
    {
      "anonymous": false,
      "inputs": [
        {
          "indexed": true,
          "internalType": "address",
          "name": "to",
          "type": "address"
        },
        {
          "indexed": true,
          "internalType": "uint256",
          "name": "tokenId",
          "type": "uint256"
        }
      ],
      "name": "Revoke",
      "type": "event"
    },
    {
      "anonymous": false,
      "inputs": [
        {
          "indexed": true,
          "internalType": "address",
          "name": "from",
          "type": "address"
        },
        {
          "indexed": true,
          "internalType": "address",
          "name": "to",
          "type": "address"
        },
        {
          "indexed": true,
          "internalType": "uint256",
          "name": "tokenId",
          "type": "uint256"
        }
      ],
      "name": "Transfer",
      "type": "event"
    },
    {
      "inputs": [
        {
          "internalType": "address",
          "name": "to",
          "type": "address"
        },
        {
          "internalType": "uint256",
          "name": "tokenId",
          "type": "uint256"
        }
      ],
      "name": "approve",
      "outputs": [],
      "stateMutability": "nonpayable",
      "type": "function"
    },
    {
      "inputs": [
        {
          "internalType": "address",
          "name": "owner",
          "type": "address"
        }
      ],
      "name": "balanceOf",
      "outputs": [
        {
          "internalType": "uint256",
          "name": "",
          "type": "uint256"
        }
      ],
      "stateMutability": "view",
      "type": "function"
    },
    {
      "inputs": [
        {
          "internalType": "uint256",
          "name": "tokenId",
          "type": "uint256"
        }
      ],
      "name": "getApproved",
      "outputs": [
        {
          "internalType": "address",
          "name": "",
          "type": "address"
        }
      ],
      "stateMutability": "view",
      "type": "function"
    },
    {
      "inputs": [
        {
          "internalType": "address",
          "name": "owner",
          "type": "address"
        },
        {
          "internalType": "address",
          "name": "operator",
          "type": "address"
        }
      ],
      "name": "isApprovedForAll",
      "outputs": [
        {
          "internalType": "bool",
          "name": "",
          "type": "bool"
        }
      ],
      "stateMutability": "view",
      "type": "function"
    },
    {
      "inputs": [],
      "name": "name",
      "outputs": [
        {
          "internalType": "string",
          "name": "",
          "type": "string"
        }
      ],
      "stateMutability": "view",
      "type": "function"
    },
    {
      "inputs": [],
      "name": "owner",
      "outputs": [
        {
          "internalType": "address",
          "name": "",
          "type": "address"
        }
      ],
      "stateMutability": "view",
      "type": "function"
    },
    {
      "inputs": [
        {
          "internalType": "uint256",
          "name": "tokenId",
          "type": "uint256"
        }
      ],
      "name": "ownerOf",
      "outputs": [
        {
          "internalType": "address",
          "name": "",
          "type": "address"
        }
      ],
      "stateMutability": "view",
      "type": "function"
    },
    {
      "inputs": [],
      "name": "renounceOwnership",
      "outputs": [],
      "stateMutability": "nonpayable",
      "type": "function"
    },
    {
      "inputs": [
        {
          "internalType": "address",
          "name": "to",
          "type": "address"
        }
      ],
      "name": "safeMint",
      "outputs": [],
      "stateMutability": "nonpayable",
      "type": "function"
    },
    {
      "inputs": [
        {
          "internalType": "address",
          "name": "from",
          "type": "address"
        },
        {
          "internalType": "address",
          "name": "to",
          "type": "address"
        },
        {
          "internalType": "uint256",
          "name": "tokenId",
          "type": "uint256"
        }
      ],
      "name": "safeTransferFrom",
      "outputs": [],
      "stateMutability": "nonpayable",
      "type": "function"
    },
    {
      "inputs": [
        {
          "internalType": "address",
          "name": "from",
          "type": "address"
        },
        {
          "internalType": "address",
          "name": "to",
          "type": "address"
        },
        {
          "internalType": "uint256",
          "name": "tokenId",
          "type": "uint256"
        },
        {
          "internalType": "bytes",
          "name": "data",
          "type": "bytes"
        }
      ],
      "name": "safeTransferFrom",
      "outputs": [],
      "stateMutability": "nonpayable",
      "type": "function"
    },
    {
      "inputs": [
        {
          "internalType": "address",
          "name": "operator",
          "type": "address"
        },
        {
          "internalType": "bool",
          "name": "approved",
          "type": "bool"
        }
      ],
      "name": "setApprovalForAll",
      "outputs": [],
      "stateMutability": "nonpayable",
      "type": "function"
    },
    {
      "inputs": [
        {
          "internalType": "bytes4",
          "name": "interfaceId",
          "type": "bytes4"
        }
      ],
      "name": "supportsInterface",
      "outputs": [
        {
          "internalType": "bool",
          "name": "",
          "type": "bool"
        }
      ],
      "stateMutability": "view",
      "type": "function"
    },
    {
      "inputs": [],
      "name": "symbol",
      "outputs": [
        {
          "internalType": "string",
          "name": "",
          "type": "string"
        }
      ],
      "stateMutability": "view",
      "type": "function"
    },
    {
      "inputs": [
        {
          "internalType": "uint256",
          "name": "tokenId",
          "type": "uint256"
        }
      ],
      "name": "tokenURI",
      "outputs": [
        {
          "internalType": "string",
          "name": "",
          "type": "string"
        }
      ],
      "stateMutability": "view",
      "type": "function"
    },
    {
      "inputs": [
        {
          "internalType": "address",
          "name": "from",
          "type": "address"
        },
        {
          "internalType": "address",
          "name": "to",
          "type": "address"
        },
        {
          "internalType": "uint256",
          "name": "tokenId",
          "type": "uint256"
        }
      ],
      "name": "transferFrom",
      "outputs": [],
      "stateMutability": "nonpayable",
      "type": "function"
    },
    {
      "inputs": [
        {
          "internalType": "address",
          "name": "newOwner",
          "type": "address"
        }
      ],
      "name": "transferOwnership",
      "outputs": [],
      "stateMutability": "nonpayable",
      "type": "function"
    }
  ],
  "bytecode": "0x608060405260006009556040518060600160405280604051806060016040528060368152602001620036ab603691398152602001604051806060016040528060358152602001620036e16035913981526020016040518060600160405280603581526020016200367660359139815250600a9060036200008192919062000216565b503480156200008f57600080fd5b506040518060400160405280600781526020017f4d79546f6b656e000000000000000000000000000000000000000000000000008152506040518060400160405280600381526020017f4d544b000000000000000000000000000000000000000000000000000000000081525081600090816200010d919062000570565b5080600190816200011f919062000570565b50505062000142620001366200014860201b60201c565b6200015060201b60201c565b62000657565b600033905090565b6000600760009054906101000a900473ffffffffffffffffffffffffffffffffffffffff16905081600760006101000a81548173ffffffffffffffffffffffffffffffffffffffff021916908373ffffffffffffffffffffffffffffffffffffffff1602179055508173ffffffffffffffffffffffffffffffffffffffff168173ffffffffffffffffffffffffffffffffffffffff167f8be0079c531659141344cd1fd0a4f28419497f9722a3daafe3b4186f6b6457e060405160405180910390a35050565b826003810192821562000256579160200282015b828111156200025557825182908162000244919062000570565b50916020019190600101906200022a565b5b50905062000265919062000269565b5090565b5b808211156200028d576000818162000283919062000291565b506001016200026a565b5090565b5080546200029f906200035f565b6000825580601f10620002b35750620002d4565b601f016020900490600052602060002090810190620002d39190620002d7565b5b50565b5b80821115620002f2576000816000905550600101620002d8565b5090565b600081519050919050565b7f4e487b7100000000000000000000000000000000000000000000000000000000600052604160045260246000fd5b7f4e487b7100000000000000000000000000000000000000000000000000000000600052602260045260246000fd5b600060028204905060018216806200037857607f821691505b6020821081036200038e576200038d62000330565b5b50919050565b60008190508160005260206000209050919050565b60006020601f8301049050919050565b600082821b905092915050565b600060088302620003f87fffffffffffffffffffffffffffffffffffffffffffffffffffffffffffffffff82620003b9565b620004048683620003b9565b95508019841693508086168417925050509392505050565b6000819050919050565b6000819050919050565b6000620004516200044b62000445846200041c565b62000426565b6200041c565b9050919050565b6000819050919050565b6200046d8362000430565b620004856200047c8262000458565b848454620003c6565b825550505050565b600090565b6200049c6200048d565b620004a981848462000462565b505050565b5b81811015620004d157620004c560008262000492565b600181019050620004af565b5050565b601f8211156200052057620004ea8162000394565b620004f584620003a9565b8101602085101562000505578190505b6200051d6200051485620003a9565b830182620004ae565b50505b505050565b600082821c905092915050565b6000620005456000198460080262000525565b1980831691505092915050565b600062000560838362000532565b9150826002028217905092915050565b6200057b82620002f6565b67ffffffffffffffff81111562000597576200059662000301565b5b620005a382546200035f565b620005b0828285620004d5565b600060209050601f831160018114620005e85760008415620005d3578287015190505b620005df858262000552565b8655506200064f565b601f198416620005f88662000394565b60005b828110156200062257848901518255600182019150602085019450602081019050620005fb565b868310156200064257848901516200063e601f89168262000532565b8355505b6001600288020188555050505b505050505050565b61300f80620006676000396000f3fe608060405234801561001057600080fd5b506004361061010b5760003560e01c806370a08231116100a2578063a22cb46511610071578063a22cb465146102a4578063b88d4fde146102c0578063c87b56dd146102dc578063e985e9c51461030c578063f2fde38b1461033c5761010b565b806370a082311461022e578063715018a61461025e5780638da5cb5b1461026857806395d89b41146102865761010b565b806323b872dd116100de57806323b872dd146101aa57806340d097c3146101c657806342842e0e146101e25780636352211e146101fe5761010b565b806301ffc9a71461011057806306fdde0314610140578063081812fc1461015e578063095ea7b31461018e575b600080fd5b61012a60048036038101906101259190611de5565b610358565b6040516101379190611e2d565b60405180910390f35b61014861043a565b6040516101559190611ed8565b60405180910390f35b61017860048036038101906101739190611f30565b6104cc565b6040516101859190611f9e565b60405180910390f35b6101a860048036038101906101a39190611fe5565b610512565b005b6101c460048036038101906101bf9190612025565b610629565b005b6101e060048036038101906101db9190612078565b610689565b005b6101fc60048036038101906101f79190612025565b6106f1565b005b61021860048036038101906102139190611f30565b610711565b6040516102259190611f9e565b60405180910390f35b61024860048036038101906102439190612078565b610797565b60405161025591906120b4565b60405180910390f35b61026661084e565b005b610270610862565b60405161027d9190611f9e565b60405180910390f35b61028e61088c565b60405161029b9190611ed8565b60405180910390f35b6102be60048036038101906102b991906120fb565b61091e565b005b6102da60048036038101906102d59190612270565b610934565b005b6102f660048036038101906102f19190611f30565b610996565b6040516103039190611ed8565b60405180910390f35b610326600480360381019061032191906122f3565b6109a8565b6040516103339190611e2d565b60405180910390f35b61035660048036038101906103519190612078565b610a3c565b005b60007f80ac58cd000000000000000000000000000000000000000000000000000000007bffffffffffffffffffffffffffffffffffffffffffffffffffffffff1916827bffffffffffffffffffffffffffffffffffffffffffffffffffffffff1916148061042357507f5b5e139f000000000000000000000000000000000000000000000000000000007bffffffffffffffffffffffffffffffffffffffffffffffffffffffff1916827bffffffffffffffffffffffffffffffffffffffffffffffffffffffff1916145b80610433575061043282610abf565b5b9050919050565b60606000805461044990612362565b80601f016020809104026020016040519081016040528092919081815260200182805461047590612362565b80156104c25780601f10610497576101008083540402835291602001916104c2565b820191906000526020600020905b8154815290600101906020018083116104a557829003601f168201915b5050505050905090565b60006104d782610b29565b6004600083815260200190815260200160002060009054906101000a900473ffffffffffffffffffffffffffffffffffffffff169050919050565b600061051d82610711565b90508073ffffffffffffffffffffffffffffffffffffffff168373ffffffffffffffffffffffffffffffffffffffff160361058d576040517f08c379a000000000000000000000000000000000000000000000000000000000815260040161058490612405565b60405180910390fd5b8073ffffffffffffffffffffffffffffffffffffffff166105ac610b74565b73ffffffffffffffffffffffffffffffffffffffff1614806105db57506105da816105d5610b74565b6109a8565b5b61061a576040517f08c379a000000000000000000000000000000000000000000000000000000000815260040161061190612497565b60405180910390fd5b6106248383610b7c565b505050565b61063a610634610b74565b82610c35565b610679576040517f08c379a000000000000000000000000000000000000000000000000000000000815260040161067090612529565b60405180910390fd5b610684838383610cca565b505050565b610691610fc3565b600061069d6008611041565b90506106a9600861104f565b6106b38282611065565b6106d581604051806060016040528060358152602001612fa560359139611083565b600960008154809291906106e890612578565b91905055505050565b61070c83838360405180602001604052806000815250610934565b505050565b60008061071d836110f0565b9050600073ffffffffffffffffffffffffffffffffffffffff168173ffffffffffffffffffffffffffffffffffffffff160361078e576040517f08c379a00000000000000000000000000000000000000000000000000000000081526004016107859061260c565b60405180910390fd5b80915050919050565b60008073ffffffffffffffffffffffffffffffffffffffff168273ffffffffffffffffffffffffffffffffffffffff1603610807576040517f08c379a00000000000000000000000000000000000000000000000000000000081526004016107fe9061269e565b60405180910390fd5b600360008373ffffffffffffffffffffffffffffffffffffffff1673ffffffffffffffffffffffffffffffffffffffff168152602001908152602001600020549050919050565b610856610fc3565b610860600061112d565b565b6000600760009054906101000a900473ffffffffffffffffffffffffffffffffffffffff16905090565b60606001805461089b90612362565b80601f01602080910402602001604051908101604052809291908181526020018280546108c790612362565b80156109145780601f106108e957610100808354040283529160200191610914565b820191906000526020600020905b8154815290600101906020018083116108f757829003601f168201915b5050505050905090565b610930610929610b74565b83836111f3565b5050565b61094561093f610b74565b83610c35565b610984576040517f08c379a000000000000000000000000000000000000000000000000000000000815260040161097b90612529565b60405180910390fd5b6109908484848461135f565b50505050565b60606109a1826113bb565b9050919050565b6000600560008473ffffffffffffffffffffffffffffffffffffffff1673ffffffffffffffffffffffffffffffffffffffff16815260200190815260200160002060008373ffffffffffffffffffffffffffffffffffffffff1673ffffffffffffffffffffffffffffffffffffffff16815260200190815260200160002060009054906101000a900460ff16905092915050565b610a44610fc3565b600073ffffffffffffffffffffffffffffffffffffffff168173ffffffffffffffffffffffffffffffffffffffff1603610ab3576040517f08c379a0000000000000000000000000000000000000000000000000000000008152600401610aaa90612730565b60405180910390fd5b610abc8161112d565b50565b60007f01ffc9a7000000000000000000000000000000000000000000000000000000007bffffffffffffffffffffffffffffffffffffffffffffffffffffffff1916827bffffffffffffffffffffffffffffffffffffffffffffffffffffffff1916149050919050565b610b32816114cd565b610b71576040517f08c379a0000000000000000000000000000000000000000000000000000000008152600401610b689061260c565b60405180910390fd5b50565b600033905090565b816004600083815260200190815260200160002060006101000a81548173ffffffffffffffffffffffffffffffffffffffff021916908373ffffffffffffffffffffffffffffffffffffffff160217905550808273ffffffffffffffffffffffffffffffffffffffff16610bef83610711565b73ffffffffffffffffffffffffffffffffffffffff167f8c5be1e5ebec7d5bd14f71427d1e84f3dd0314c0f7b2291e5b200ac8c7c3b92560405160405180910390a45050565b600080610c4183610711565b90508073ffffffffffffffffffffffffffffffffffffffff168473ffffffffffffffffffffffffffffffffffffffff161480610c835750610c8281856109a8565b5b80610cc157508373ffffffffffffffffffffffffffffffffffffffff16610ca9846104cc565b73ffffffffffffffffffffffffffffffffffffffff16145b91505092915050565b8273ffffffffffffffffffffffffffffffffffffffff16610cea82610711565b73ffffffffffffffffffffffffffffffffffffffff1614610d40576040517f08c379a0000000000000000000000000000000000000000000000000000000008152600401610d37906127c2565b60405180910390fd5b600073ffffffffffffffffffffffffffffffffffffffff168273ffffffffffffffffffffffffffffffffffffffff1603610daf576040517f08c379a0000000000000000000000000000000000000000000000000000000008152600401610da690612854565b60405180910390fd5b610dbc838383600161150e565b8273ffffffffffffffffffffffffffffffffffffffff16610ddc82610711565b73ffffffffffffffffffffffffffffffffffffffff1614610e32576040517f08c379a0000000000000000000000000000000000000000000000000000000008152600401610e29906127c2565b60405180910390fd5b6004600082815260200190815260200160002060006101000a81549073ffffffffffffffffffffffffffffffffffffffff02191690556001600360008573ffffffffffffffffffffffffffffffffffffffff1673ffffffffffffffffffffffffffffffffffffffff168152602001908152602001600020600082825403925050819055506001600360008473ffffffffffffffffffffffffffffffffffffffff1673ffffffffffffffffffffffffffffffffffffffff16815260200190815260200160002060008282540192505081905550816002600083815260200190815260200160002060006101000a81548173ffffffffffffffffffffffffffffffffffffffff021916908373ffffffffffffffffffffffffffffffffffffffff160217905550808273ffffffffffffffffffffffffffffffffffffffff168473ffffffffffffffffffffffffffffffffffffffff167fddf252ad1be2c89b69c2b068fc378daa952ba7f163c4a11628f55a4df523b3ef60405160405180910390a4610fbe83838360016115ba565b505050565b610fcb610b74565b73ffffffffffffffffffffffffffffffffffffffff16610fe9610862565b73ffffffffffffffffffffffffffffffffffffffff161461103f576040517f08c379a0000000000000000000000000000000000000000000000000000000008152600401611036906128c0565b60405180910390fd5b565b600081600001549050919050565b6001816000016000828254019250508190555050565b61107f8282604051806020016040528060008152506116b7565b5050565b61108c826114cd565b6110cb576040517f08c379a00000000000000000000000000000000000000000000000000000000081526004016110c290612952565b60405180910390fd5b806006600084815260200190815260200160002090816110eb9190612b1e565b505050565b60006002600083815260200190815260200160002060009054906101000a900473ffffffffffffffffffffffffffffffffffffffff169050919050565b6000600760009054906101000a900473ffffffffffffffffffffffffffffffffffffffff16905081600760006101000a81548173ffffffffffffffffffffffffffffffffffffffff021916908373ffffffffffffffffffffffffffffffffffffffff1602179055508173ffffffffffffffffffffffffffffffffffffffff168173ffffffffffffffffffffffffffffffffffffffff167f8be0079c531659141344cd1fd0a4f28419497f9722a3daafe3b4186f6b6457e060405160405180910390a35050565b8173ffffffffffffffffffffffffffffffffffffffff168373ffffffffffffffffffffffffffffffffffffffff1603611261576040517f08c379a000000000000000000000000000000000000000000000000000000000815260040161125890612c3c565b60405180910390fd5b80600560008573ffffffffffffffffffffffffffffffffffffffff1673ffffffffffffffffffffffffffffffffffffffff16815260200190815260200160002060008473ffffffffffffffffffffffffffffffffffffffff1673ffffffffffffffffffffffffffffffffffffffff16815260200190815260200160002060006101000a81548160ff0219169083151502179055508173ffffffffffffffffffffffffffffffffffffffff168373ffffffffffffffffffffffffffffffffffffffff167f17307eab39ab6107e8899845ad3d59bd9653f200f220920489ca2b5937696c31836040516113529190611e2d565b60405180910390a3505050565b61136a848484610cca565b61137684848484611712565b6113b5576040517f08c379a00000000000000000000000000000000000000000000000000000000081526004016113ac90612cce565b60405180910390fd5b50505050565b60606113c682610b29565b60006006600084815260200190815260200160002080546113e690612362565b80601f016020809104026020016040519081016040528092919081815260200182805461141290612362565b801561145f5780601f106114345761010080835404028352916020019161145f565b820191906000526020600020905b81548152906001019060200180831161144257829003601f168201915b505050505090506000611470611899565b905060008151036114855781925050506114c8565b6000825111156114ba5780826040516020016114a2929190612d2a565b604051602081830303815290604052925050506114c8565b6114c3846118b0565b925050505b919050565b60008073ffffffffffffffffffffffffffffffffffffffff166114ef836110f0565b73ffffffffffffffffffffffffffffffffffffffff1614159050919050565b600073ffffffffffffffffffffffffffffffffffffffff168473ffffffffffffffffffffffffffffffffffffffff1614806115755750600073ffffffffffffffffffffffffffffffffffffffff168373ffffffffffffffffffffffffffffffffffffffff16145b6115b4576040517f08c379a00000000000000000000000000000000000000000000000000000000081526004016115ab90612d9a565b60405180910390fd5b50505050565b600073ffffffffffffffffffffffffffffffffffffffff168473ffffffffffffffffffffffffffffffffffffffff160361163757818373ffffffffffffffffffffffffffffffffffffffff167fe9274a84b19e9428826de6bae8c48329354f8f0e73f771b97cae2d9dccd45a2760405160405180910390a36116b1565b600073ffffffffffffffffffffffffffffffffffffffff168373ffffffffffffffffffffffffffffffffffffffff16036116b057818373ffffffffffffffffffffffffffffffffffffffff167fec9ab91322523c899ede7830ec9bfc992b5981cdcc27b91162fb23de5791117b60405160405180910390a35b5b50505050565b6116c18383611918565b6116ce6000848484611712565b61170d576040517f08c379a000000000000000000000000000000000000000000000000000000000815260040161170490612cce565b60405180910390fd5b505050565b60006117338473ffffffffffffffffffffffffffffffffffffffff16611b35565b1561188c578373ffffffffffffffffffffffffffffffffffffffff1663150b7a0261175c610b74565b8786866040518563ffffffff1660e01b815260040161177e9493929190612e0f565b6020604051808303816000875af19250505080156117ba57506040513d601f19601f820116820180604052508101906117b79190612e70565b60015b61183c573d80600081146117ea576040519150601f19603f3d011682016040523d82523d6000602084013e6117ef565b606091505b506000815103611834576040517f08c379a000000000000000000000000000000000000000000000000000000000815260040161182b90612cce565b60405180910390fd5b805181602001fd5b63150b7a0260e01b7bffffffffffffffffffffffffffffffffffffffffffffffffffffffff1916817bffffffffffffffffffffffffffffffffffffffffffffffffffffffff191614915050611891565b600190505b949350505050565b606060405180602001604052806000815250905090565b60606118bb82610b29565b60006118c5611899565b905060008151116118e55760405180602001604052806000815250611910565b806118ef84611b58565b604051602001611900929190612d2a565b6040516020818303038152906040525b915050919050565b600073ffffffffffffffffffffffffffffffffffffffff168273ffffffffffffffffffffffffffffffffffffffff1603611987576040517f08c379a000000000000000000000000000000000000000000000000000000000815260040161197e90612ee9565b60405180910390fd5b611990816114cd565b156119d0576040517f08c379a00000000000000000000000000000000000000000000000000000000081526004016119c790612f55565b60405180910390fd5b6119de60008383600161150e565b6119e7816114cd565b15611a27576040517f08c379a0000000000000000000000000000000000000000000000000000000008152600401611a1e90612f55565b60405180910390fd5b6001600360008473ffffffffffffffffffffffffffffffffffffffff1673ffffffffffffffffffffffffffffffffffffffff16815260200190815260200160002060008282540192505081905550816002600083815260200190815260200160002060006101000a81548173ffffffffffffffffffffffffffffffffffffffff021916908373ffffffffffffffffffffffffffffffffffffffff160217905550808273ffffffffffffffffffffffffffffffffffffffff16600073ffffffffffffffffffffffffffffffffffffffff167fddf252ad1be2c89b69c2b068fc378daa952ba7f163c4a11628f55a4df523b3ef60405160405180910390a4611b316000838360016115ba565b5050565b6000808273ffffffffffffffffffffffffffffffffffffffff163b119050919050565b606060006001611b6784611c26565b01905060008167ffffffffffffffff811115611b8657611b85612145565b5b6040519080825280601f01601f191660200182016040528015611bb85781602001600182028036833780820191505090505b509050600082602001820190505b600115611c1b578080600190039150507f3031323334353637383961626364656600000000000000000000000000000000600a86061a8153600a8581611c0f57611c0e612f75565b5b04945060008503611bc6575b819350505050919050565b600080600090507a184f03e93ff9f4daa797ed6e38ed64bf6a1f0100000000000000008310611c84577a184f03e93ff9f4daa797ed6e38ed64bf6a1f0100000000000000008381611c7a57611c79612f75565b5b0492506040810190505b6d04ee2d6d415b85acef81000000008310611cc1576d04ee2d6d415b85acef81000000008381611cb757611cb6612f75565b5b0492506020810190505b662386f26fc100008310611cf057662386f26fc100008381611ce657611ce5612f75565b5b0492506010810190505b6305f5e1008310611d19576305f5e1008381611d0f57611d0e612f75565b5b0492506008810190505b6127108310611d3e576127108381611d3457611d33612f75565b5b0492506004810190505b60648310611d615760648381611d5757611d56612f75565b5b0492506002810190505b600a8310611d70576001810190505b80915050919050565b6000604051905090565b600080fd5b600080fd5b60007fffffffff0000000000000000000000000000000000000000000000000000000082169050919050565b611dc281611d8d565b8114611dcd57600080fd5b50565b600081359050611ddf81611db9565b92915050565b600060208284031215611dfb57611dfa611d83565b5b6000611e0984828501611dd0565b91505092915050565b60008115159050919050565b611e2781611e12565b82525050565b6000602082019050611e426000830184611e1e565b92915050565b600081519050919050565b600082825260208201905092915050565b60005b83811015611e82578082015181840152602081019050611e67565b60008484015250505050565b6000601f19601f8301169050919050565b6000611eaa82611e48565b611eb48185611e53565b9350611ec4818560208601611e64565b611ecd81611e8e565b840191505092915050565b60006020820190508181036000830152611ef28184611e9f565b905092915050565b6000819050919050565b611f0d81611efa565b8114611f1857600080fd5b50565b600081359050611f2a81611f04565b92915050565b600060208284031215611f4657611f45611d83565b5b6000611f5484828501611f1b565b91505092915050565b600073ffffffffffffffffffffffffffffffffffffffff82169050919050565b6000611f8882611f5d565b9050919050565b611f9881611f7d565b82525050565b6000602082019050611fb36000830184611f8f565b92915050565b611fc281611f7d565b8114611fcd57600080fd5b50565b600081359050611fdf81611fb9565b92915050565b60008060408385031215611ffc57611ffb611d83565b5b600061200a85828601611fd0565b925050602061201b85828601611f1b565b9150509250929050565b60008060006060848603121561203e5761203d611d83565b5b600061204c86828701611fd0565b935050602061205d86828701611fd0565b925050604061206e86828701611f1b565b9150509250925092565b60006020828403121561208e5761208d611d83565b5b600061209c84828501611fd0565b91505092915050565b6120ae81611efa565b82525050565b60006020820190506120c960008301846120a5565b92915050565b6120d881611e12565b81146120e357600080fd5b50565b6000813590506120f5816120cf565b92915050565b6000806040838503121561211257612111611d83565b5b600061212085828601611fd0565b9250506020612131858286016120e6565b9150509250929050565b600080fd5b600080fd5b7f4e487b7100000000000000000000000000000000000000000000000000000000600052604160045260246000fd5b61217d82611e8e565b810181811067ffffffffffffffff8211171561219c5761219b612145565b5b80604052505050565b60006121af611d79565b90506121bb8282612174565b919050565b600067ffffffffffffffff8211156121db576121da612145565b5b6121e482611e8e565b9050602081019050919050565b82818337600083830152505050565b600061221361220e846121c0565b6121a5565b90508281526020810184848401111561222f5761222e612140565b5b61223a8482856121f1565b509392505050565b600082601f8301126122575761225661213b565b5b8135612267848260208601612200565b91505092915050565b6000806000806080858703121561228a57612289611d83565b5b600061229887828801611fd0565b94505060206122a987828801611fd0565b93505060406122ba87828801611f1b565b925050606085013567ffffffffffffffff8111156122db576122da611d88565b5b6122e787828801612242565b91505092959194509250565b6000806040838503121561230a57612309611d83565b5b600061231885828601611fd0565b925050602061232985828601611fd0565b9150509250929050565b7f4e487b7100000000000000000000000000000000000000000000000000000000600052602260045260246000fd5b6000600282049050600182168061237a57607f821691505b60208210810361238d5761238c612333565b5b50919050565b7f4552433732313a20617070726f76616c20746f2063757272656e74206f776e6560008201527f7200000000000000000000000000000000000000000000000000000000000000602082015250565b60006123ef602183611e53565b91506123fa82612393565b604082019050919050565b6000602082019050818103600083015261241e816123e2565b9050919050565b7f4552433732313a20617070726f76652063616c6c6572206973206e6f7420746f60008201527f6b656e206f776e6572206f7220617070726f76656420666f7220616c6c000000602082015250565b6000612481603d83611e53565b915061248c82612425565b604082019050919050565b600060208201905081810360008301526124b081612474565b9050919050565b7f4552433732313a2063616c6c6572206973206e6f7420746f6b656e206f776e6560008201527f72206f7220617070726f76656400000000000000000000000000000000000000602082015250565b6000612513602d83611e53565b915061251e826124b7565b604082019050919050565b6000602082019050818103600083015261254281612506565b9050919050565b7f4e487b7100000000000000000000000000000000000000000000000000000000600052601160045260246000fd5b600061258382611efa565b91507fffffffffffffffffffffffffffffffffffffffffffffffffffffffffffffffff82036125b5576125b4612549565b5b600182019050919050565b7f4552433732313a20696e76616c696420746f6b656e2049440000000000000000600082015250565b60006125f6601883611e53565b9150612601826125c0565b602082019050919050565b60006020820190508181036000830152612625816125e9565b9050919050565b7f4552433732313a2061646472657373207a65726f206973206e6f74206120766160008201527f6c6964206f776e65720000000000000000000000000000000000000000000000602082015250565b6000612688602983611e53565b91506126938261262c565b604082019050919050565b600060208201905081810360008301526126b78161267b565b9050919050565b7f4f776e61626c653a206e6577206f776e657220697320746865207a65726f206160008201527f6464726573730000000000000000000000000000000000000000000000000000602082015250565b600061271a602683611e53565b9150612725826126be565b604082019050919050565b600060208201905081810360008301526127498161270d565b9050919050565b7f4552433732313a207472616e736665722066726f6d20696e636f72726563742060008201527f6f776e6572000000000000000000000000000000000000000000000000000000602082015250565b60006127ac602583611e53565b91506127b782612750565b604082019050919050565b600060208201905081810360008301526127db8161279f565b9050919050565b7f4552433732313a207472616e7366657220746f20746865207a65726f2061646460008201527f7265737300000000000000000000000000000000000000000000000000000000602082015250565b600061283e602483611e53565b9150612849826127e2565b604082019050919050565b6000602082019050818103600083015261286d81612831565b9050919050565b7f4f776e61626c653a2063616c6c6572206973206e6f7420746865206f776e6572600082015250565b60006128aa602083611e53565b91506128b582612874565b602082019050919050565b600060208201905081810360008301526128d98161289d565b9050919050565b7f45524337323155524953746f726167653a2055524920736574206f66206e6f6e60008201527f6578697374656e7420746f6b656e000000000000000000000000000000000000602082015250565b600061293c602e83611e53565b9150612947826128e0565b604082019050919050565b6000602082019050818103600083015261296b8161292f565b9050919050565b60008190508160005260206000209050919050565b60006020601f8301049050919050565b600082821b905092915050565b6000600883026129d47fffffffffffffffffffffffffffffffffffffffffffffffffffffffffffffffff82612997565b6129de8683612997565b95508019841693508086168417925050509392505050565b6000819050919050565b6000612a1b612a16612a1184611efa565b6129f6565b611efa565b9050919050565b6000819050919050565b612a3583612a00565b612a49612a4182612a22565b8484546129a4565b825550505050565b600090565b612a5e612a51565b612a69818484612a2c565b505050565b5b81811015612a8d57612a82600082612a56565b600181019050612a6f565b5050565b601f821115612ad257612aa381612972565b612aac84612987565b81016020851015612abb578190505b612acf612ac785612987565b830182612a6e565b50505b505050565b600082821c905092915050565b6000612af560001984600802612ad7565b1980831691505092915050565b6000612b0e8383612ae4565b9150826002028217905092915050565b612b2782611e48565b67ffffffffffffffff811115612b4057612b3f612145565b5b612b4a8254612362565b612b55828285612a91565b600060209050601f831160018114612b885760008415612b76578287015190505b612b808582612b02565b865550612be8565b601f198416612b9686612972565b60005b82811015612bbe57848901518255600182019150602085019450602081019050612b99565b86831015612bdb5784890151612bd7601f891682612ae4565b8355505b6001600288020188555050505b505050505050565b7f4552433732313a20617070726f766520746f2063616c6c657200000000000000600082015250565b6000612c26601983611e53565b9150612c3182612bf0565b602082019050919050565b60006020820190508181036000830152612c5581612c19565b9050919050565b7f4552433732313a207472616e7366657220746f206e6f6e20455243373231526560008201527f63656976657220696d706c656d656e7465720000000000000000000000000000602082015250565b6000612cb8603283611e53565b9150612cc382612c5c565b604082019050919050565b60006020820190508181036000830152612ce781612cab565b9050919050565b600081905092915050565b6000612d0482611e48565b612d0e8185612cee565b9350612d1e818560208601611e64565b80840191505092915050565b6000612d368285612cf9565b9150612d428284612cf9565b91508190509392505050565b7f596f752063616e2774207472616e73666572207468697320746f6b656e000000600082015250565b6000612d84601d83611e53565b9150612d8f82612d4e565b602082019050919050565b60006020820190508181036000830152612db381612d77565b9050919050565b600081519050919050565b600082825260208201905092915050565b6000612de182612dba565b612deb8185612dc5565b9350612dfb818560208601611e64565b612e0481611e8e565b840191505092915050565b6000608082019050612e246000830187611f8f565b612e316020830186611f8f565b612e3e60408301856120a5565b8181036060830152612e508184612dd6565b905095945050505050565b600081519050612e6a81611db9565b92915050565b600060208284031215612e8657612e85611d83565b5b6000612e9484828501612e5b565b91505092915050565b7f4552433732313a206d696e7420746f20746865207a65726f2061646472657373600082015250565b6000612ed3602083611e53565b9150612ede82612e9d565b602082019050919050565b60006020820190508181036000830152612f0281612ec6565b9050919050565b7f4552433732313a20746f6b656e20616c7265616479206d696e74656400000000600082015250565b6000612f3f601c83611e53565b9150612f4a82612f09565b602082019050919050565b60006020820190508181036000830152612f6e81612f32565b9050919050565b7f4e487b7100000000000000000000000000000000000000000000000000000000600052601260045260246000fdfe697066733a2f2f516d654d32366f79416e444767424c4e6133576152517063453367626a6a48506d62336773647a6873753163474da264697066735822122050511a0734a7c298e23a08d92e8a66c29a1ba7bfa26215d3387ef2f32e6adf1564736f6c63430008110033697066733a2f2f516d564e46316f70705966656947743142364e767332325131456147535642566e386e35574b75687048576f734e697066733a2f2f78516d635769654c663256523658794661376e623776656e78467a436364795374457563455476467436685a704254697066733a2f2f516d646931626a554d50376737375947535a4a4e3370746d6f544b6871554644466d47334334365a41654268424b",
  "linkReferences": {},
  "deployedLinkReferences": {}
}